:1000000020C02FC0ACC02DC02CC02BC02AC029C01E
:1000100028C027C026C025C024C023C022C021C0BC
:1000200020C098C081C087C089C085C093C089C0E6
:100030007BC07AC086C08EC07EC080C07CC074C0C9
:1000400089C011241FBECFE5D1E0DEBFCDBF21E0C6
:10005000A0E6B0E001C01D92AA31B207E1F7DAD400
:1000600069C5CECFCF93DF93EC0188A18936A1F18A
:1000700040F48436E1F08636F1F0803279F51D8A5D
:100080002DC0823701F138F48E3641F519BC18BC09
:1000900018A219A21FC0853731F08737F9F4CE01B5
:1000A00081968BD413C088B599B501970FC088B5D8
:1000B00099B501960BC08FEF93E099BD88BD83E0A1
:1000C00088A38FEF06C088B599B502C099BD88BDD9
:1000D00098A389A382E005C08DA901C08FE388A3FE
:1000E00081E08BA7DF91CF91089580E18BBF8CE0F9
:1000F00082BB7894089580916300909164009093FE
:1001000062008093610020910D01237089B382FD0C
:10011000246083FD2860822F90E08031910588F46F
:10012000FC01EF5EFF4F099481E090E09093640042
:10013000809363000DC082E090E005C083E090E012
:1001400002C084E090E0909364008093630081E0BB
:10015000809360002695269520930D0108951F92A7
:100160000F920FB60F9211242F933F934F935F93EB
:100170006F937F938F939F93AF93BF93EF93FF936F
:10018000BADFFF91EF91BF91AF919F918F917F91D6
:100190006F915F914F913F912F910F900FBE0F90F4
:1001A0001F901895FC0180916000882399F01092AF
:1001B000600080916300909164009093620080934E
:1001C0006100138621E0258B80916300909164008B
:1001D00080A323A70895982F80ED890F8A3070F0AF
:1001E0008FE9890F863010F489EA05C08FEB890FFB
:1001F000863018F489EC890F089580E00895CF9334
:10020000DF93FC01DA01C6A5D7A5888193A9892BC4
:1002100088838FEF8C93C4A5D5A5888192A9892363
:1002200031F48C9181508C938111F5CFF8C0C6A523
:10023000D7A5988183A98095892388838FEF8C9394
:10024000C4A5D5A5888192A9892331F08C918150CC
:100250008C938111F5CFE3C0C6A5D7A593A960FD06
:1002600005C02881892F8095822302C08881892B2F
:1002700088838FEF8C93C4A5D5A5888192A9892303
:1002800031F48C9181508C938111F5CFC8C0C6A5F3
:10029000D7A593A961FD05C02881892F8095822368
:1002A00002C08881892B88838FEF8C93C4A5D5A544
:1002B000888192A9892331F08C9181508C9381118E
:1002C000F5CFADC0C6A5D7A593A962FD05C028810D
:1002D000892F8095822302C08881892B88838FEFA4
:1002E0008C93C4A5D5A5888192A9892331F48C91DA
:1002F00081508C938111F5CF92C0C6A5D7A593A943
:1003000063FD05C02881892F8095822302C08881E2
:10031000892B88838FEF8C93C4A5D5A5888192A95A
:10032000892331F08C9181508C938111F5CF77C066
:10033000C6A5D7A593A964FD05C02881892F8095FE
:10034000822302C08881892B88838FEF8C93C4A578
:10035000D5A5888192A9892331F48C9181508C9301
:100360008111F5CF5CC0C6A5D7A593A965FD05C0D1
:100370002881892F8095822302C08881892B8883D8
:100380008FEF8C93C4A5D5A5888192A9892331F0DC
:100390008C9181508C938111F5CF41C0C6A5D7A512
:1003A00093A966FD05C02881892F8095822302C00C
:1003B0008881892B88838FEF8C93C4A5D5A58881EC
:1003C00092A9892331F48C9181508C938111F5CFBE
:1003D00026C0C6A5D7A593A967FD05C02881892F8A
:1003E0008095822302C08881892B88838FEF8C932C
:1003F000C4A5D5A5888192A9892331F08C9181501B
:100400008C938111F5CF0BC0A6A5B7A59C9183A9AC
:10041000809589238C9382E48A95F1F700C0DF915F
:10042000CF910895CF93DF93FC01DB011C928FEFF6
:10043000EA01888384A595A5EC01888192A9892386
:1004400039F4EA018881815088838111F3CFBFC0DC
:1004500086A597A5EC01288133A9232B28838FEF4C
:10046000EA01888384A595A5EC01888192A9892356
:1004700039F0EA018881815088838111F3CFA7C0C8
:10048000C6A5D7A5988183A9809589238883D2E4BE
:10049000DA95F1F700C0C4A5D5A5888192A9892372
:1004A00019F08C9181608C93C6A5D7A5888193A9FA
:1004B000892B888382E48A95F1F700C0C4A5D5A56D
:1004C000888192A9892319F08C9182608C93C6A5AA
:1004D000D7A5988183A9809589238883C2E4CA958A
:1004E000F1F700C0C4A5D5A5888192A9892319F088
:1004F0008C9184608C93C6A5D7A5888193A9892BFC
:100500008883D2E4DA95F1F700C0C4A5D5A5888127
:1005100092A9892319F08C9188608C93C6A5D7A5E0
:10052000988183A980958923888382E48A95F1F74D
:1005300000C0C4A5D5A5888192A9892319F08C9102
:1005400080618C93C6A5D7A5888193A9892B8883C0
:10055000C2E4CA95F1F700C0C4A5D5A5888192A9C7
:10056000892319F08C9180628C93C6A5D7A59881B8
:1005700083A9809589238883D2E4DA95F1F700C0B6
:10058000C4A5D5A5888192A9892319F08C9180648E
:100590008C93C6A5D7A5888193A9892B888382E4EB
:1005A0008A95F1F700C0C4A5D5A5888192A98923B1
:1005B00019F08C9180688C93A6A5B7A59C9183A90E
:1005C000809589238C93C2E4CA95F1F700C0DF912E
:1005D000CF910895FF920F931F93CF93DF9300D095
:1005E000CDB7DEB78C01FF24FA94AE014F5F5F4FA9
:1005F000BE016E5F7F4FC80115DF8981882309F432
:1006000061C0FA9409F45EC08A818B3771F7F801F2
:10061000148A9AE0F92EAE014F5F5F4FBE016E5F04
:100620007F4FC801FFDE8981F801882309F44BC0A0
:10063000FA9409F448C084899A81E80FF11D9083E7
:1006400021E0280FF801248B9C3729F7848B12A610
:100650008AE0F82EAE014F5F5F4FBE016E5F7F4FA5
:10066000C801E0DE8FEF8F0D9981992359F188231E
:1006700049F19A819C3549F5AE014F5F5F4FBE014C
:100680006E5F7F4FC801CEDE89818823D9F0F2E00A
:10069000FF16C1F0F80182A5E80FF11D9A81968B33
:1006A0008F5FF80182A7AE014F5F5F4FBE016E5FA3
:1006B0007F4FC801B7DE8DEF8F0D9981992311F01F
:1006C000811103C0F801148A10C0F80192A52A8193
:1006D000E90FF11D268B31E0390FF80132A72D37D4
:1006E00011F0F82EB7CFF80192A70F900F90DF917D
:1006F000CF911F910F91FF900895FF920F931F9339
:10070000CF93DF9300D0CDB7DEB78C01AE014F5F42
:100710005F4F6BE774DD8981882309F44BC0F12CAE
:10072000F8018589F81658F4F801EF0DF11DAE01B6
:100730004F5F5F4F6285C80162DDF394F1CF89811D
:100740008823C1F1158AAE014F5F5F4F6CE7C80186
:1007500056DD8981882371F1F12CF80183A5F81603
:10076000F0F4F801EF0DF11D20A12D3711F02C351B
:1007700041F4AE014F5F5F4F6CE5C8012A833FDD56
:100780002A8189818823B1F0AE014F5F5F4F622FCC
:10079000C80135DD8981882369F0F394DECFAE018D
:1007A0004F5F5F4F6DE7C8012ADD8981882311F013
:1007B000F80113A60F900F90DF91CF911F910F9129
:1007C000FF900895CF93DF93FC012489DC0180E042
:1007D00090E0821738F43D91EB01C80FD91F3A879A
:1007E0000196F7CFDB0155962C93148A22A580E061
:1007F00090E0821760F4DF01A80FB91F56963C9174
:10080000DB01A80FB91F90963C930196F2CFDB0154
:100810009B962C9312A6DF91CF910895FC014489F9
:1008200020E030E0241748F45191DB01A20FB31F00
:100830001A965C932F5F3F4FF5CFFB01458BFC0170
:1008400042A520E030E0241758F4FC01E20FF31F2A
:100850005689FB01E20FF31F50A32F5F3F4FF3CFE9
:10086000FB0143A70895CF93DF93FC0180E0A82FFD
:10087000B0E091E0980FEF01CA0FDB1F28812E3501
:1008800011F0892FF4CF809319011196848990E09B
:10089000A817B90719F48AE584AB07C0AE0FBF1FCC
:1008A0008C9184AB85A988832C93DF91CF91089597
:1008B00010921801FC017589472F50E060E067171E
:1008C00070F4262F30E0D901A25FBE4FFA01E21B7F
:1008D000F30BE80FF91F21852C936F5FF0CF40E0F9
:1008E000471760F4242F30E0FC01E20FF31FD90119
:1008F000A25FBE4F2C9122874F5FF2CF4093180129
:1009000008950F931F93CF93DF93EC01ECA5FDA502
:1009100080819AA9892351F08C89811107C0CE0169
:1009200059DE8C89882311F0CE019DDF8C898823C4
:10093000B1F18CA98A3559F48D89811130C0BE017D
:10094000CE0140DFCE01B4DFCE018CDB28C02EA962
:100950009FA9863481F4022F192FF80195A98DA93A
:10096000981739F0B801CE0159DFF80106A917A987
:10097000F4CF1C8A14C0E22FF92F95A9891307C060
:100980002589211104C0BF01CE011CDF08C02DA99B
:10099000291301C01C8A06A8F7A9E02DEECF8D8986
:1009A000882331F0CE01DF91CF911F910F91A5CE19
:1009B000DF91CF911F910F9108950F931F93CF93C4
:1009C000DF938C01FC01808106DCC82FF801818156
:1009D00002DCD0E0DC2FCC27D295D07F90E0982F9E
:1009E0008827C80FD91FF8018281F5DB90E044E029
:1009F000880F991F4A95E1F7C80FD91FF801838125
:100A0000EADB9E01280F311DC901DF91CF911F91B3
:100A10000F910895E0E8E6BD16BC83E38FBD89E041
:100A20008EBD8FEF93E099BD88BD4BE350E0DD981C
:100A30002AE330E0D59A89E390E090930201809315
:100A4000010168E370E0709304016093030167E3C0
:100A500070E07093060160930501E093070164E084
:100A6000609308011092E9001092EA0060E360933D
:100A70000A016DE970E070930C0160930B01C2985C
:100A8000BA9A9093CA008093C9005093CC004093C7
:100A9000CB003093CE002093CD0061E06093CF0077
:100AA00062E06093D0001092B1001092B20061E356
:100AB0006093D20065E670E07093D4006093D30039
:100AC000D998D19A9093920080939100509394007A
:100AD00040939300309396002093950080E180939B
:100AE000970080E4809398001092790010927A0029
:100AF00082E380939A0085ED90E090939C00809330
:100B00009B00DE98D69A2FEF88E09DE3215080402D
:100B10009040E1F700C00000E8DA85ED90E0F1DEFA
:100B20008DE990E0EEDE85E690E0EBDE85ED90E08D
:080B300039DBF3CFF894FFCF8D
:00000001FF
