:1000000010C01FC01EC01DC01CC01BC01AC019C01C
:1000100018C017C016C015C014C013C012C011C03C
:1000200010C011241FBECFE5D1E0DEBFCDBF20E060
:10003000A0E6B0E001C01D92AC3DB207E1F7AED53D
:1000400018C6DECFDC01FA0110828C918623E9F715
:1000500085E38A95F1F7000081E78A95F1F70000C2
:100060008C91862319F080818160808381E78A9555
:10007000F1F700008C91862319F0808182608083E3
:1000800081E78A95F1F700008C91862319F0808131
:100090008460808381E78A95F1F700008C91862344
:1000A00019F080818860808381E78A95F1F70000EC
:1000B0008C91862319F080818061808381E78A9505
:1000C000F1F700008C91862319F080818062808393
:1000D00081E78A95F1F700008C91862319F08081E1
:1000E0008064808381E78A95F1F700008C918623F4
:1000F00019F080818068808381E78A95F1F700009C
:1001000085E38A95F1F700000895FC019081862F20
:1001100080959823908391E79A95F1F7000090815C
:1001200040FF02C0962B01C09823908391E79A95D7
:10013000F1F70000908141FF02C0962B01C0982387
:10014000908391E79A95F1F70000908142FF02C0F9
:10015000962B01C09823908391E79A95F1F70000C0
:10016000908143FF02C0962B01C09823908391E7B2
:100170009A95F1F70000908144FF02C0962B01C0D0
:100180009823908391E79A95F1F70000908145FFBD
:1001900002C0962B01C09823908391E79A95F1F7BE
:1001A0000000908146FF02C0962B01C098239083E7
:1001B00091E79A95F1F7000047FF04C08081862BF4
:1001C000808303C090819823908381E78A95F1F71B
:1001D00000008081862B808391E79A95F1F70000DB
:1001E00081E78A95F1F700000895FF920F931F931E
:1001F000CF93DF931F92CDB7DEB78C01FF24FA9423
:10020000AE014F5F5F4F62E089E390E01BDFFA943D
:1002100009F44AC089818B3799F7F801148A9AE06A
:10022000F92EAE014F5F5F4F62E089E390E00ADF95
:10023000FA94F801D1F184899981E80FF11D908336
:1002400021E0280FF801248B9C3759F7848B12A6E4
:100250008AE0F82EAE014F5F5F4F62E089E390E0E5
:10026000F1DE8FEF8F0D01F199819C3501F5AE0123
:100270004F5F5F4F62E089E390E0E4DEF2E0FF165B
:1002800099F0F80182A5E80FF11D9981968B8F5F97
:10029000F80182A7AE014F5F5F4F62E089E390E013
:1002A000D1DE8DEF8F0D19F4F801148A10C0F8011A
:1002B00092A52981E90FF11D268B31E0390FF80154
:1002C00032A72D3711F0F82EC5CFF80192A70F9065
:1002D000DF91CF911F910F91FF9008950F931F937E
:1002E000CF93DF93EC014BE764E08BE390E00DDF0D
:1002F00010E08D89181750F4FE01E10FF11D4285C1
:1003000064E08BE390E001DF1F5FF3CF1D8A4CE7D1
:1003100064E08BE390E0F9DE10E08BA51817A0F401
:10032000FE01E10FF11D00A10D3711F00C3529F48C
:100330004CE564E08BE390E0E8DE402F64E08BE383
:1003400090E0E3DE1F5FE9CF1BA64DE764E08BE39F
:1003500090E0DF91CF911F910F91D7CE0895982F04
:1003600080ED890F8A3070F08FE9890F863010F4A4
:1003700089EA05C08FEB890F863018F489EC890F64
:10038000089580E00895CF93DF93FC01DA01C6A5BC
:10039000D7A5888193A9892B88838FEF8C93C4A5D7
:1003A000D5A5888192A9892331F48C9181508C93B1
:1003B0008111F5CFF8C0C6A5D7A5988183A98095EE
:1003C000892388838FEF8C93C4A5D5A5888192A9B2
:1003D000892331F08C9181508C938111F5CFE3C04A
:1003E000C6A5D7A593A960FD05C02881892F809552
:1003F000822302C08881892B88838FEF8C93C4A5C8
:10040000D5A5888192A9892331F48C9181508C9350
:100410008111F5CFC8C0C6A5D7A593A961FD05C0B8
:100420002881892F8095822302C08881892B888327
:100430008FEF8C93C4A5D5A5888192A9892331F02B
:100440008C9181508C938111F5CFADC0C6A5D7A5F5
:1004500093A962FD05C02881892F8095822302C05F
:100460008881892B88838FEF8C93C4A5D5A588813B
:1004700092A9892331F48C9181508C938111F5CF0D
:1004800092C0C6A5D7A593A963FD05C02881892F71
:100490008095822302C08881892B88838FEF8C937B
:1004A000C4A5D5A5888192A9892331F08C9181506A
:1004B0008C938111F5CF77C0C6A5D7A593A964FD0C
:1004C00005C02881892F8095822302C08881892BCD
:1004D00088838FEF8C93C4A5D5A5888192A98923A1
:1004E00031F48C9181508C938111F5CF5CC0C6A5FD
:1004F000D7A593A965FD05C02881892F8095822302
:1005000002C08881892B88838FEF8C93C4A5D5A5E1
:10051000888192A9892331F08C9181508C9381112B
:10052000F5CF41C0C6A5D7A593A966FD05C0288112
:10053000892F8095822302C08881892B88838FEF41
:100540008C93C4A5D5A5888192A9892331F48C9177
:1005500081508C938111F5CF26C0C6A5D7A593A94C
:1005600067FD05C02881892F8095822302C088817C
:10057000892B88838FEF8C93C4A5D5A5888192A9F8
:10058000892331F08C9181508C938111F5CF0BC070
:10059000A6A5B7A59C9183A9809589238C9382E415
:1005A0008A95F1F700C0DF91CF910895CF93DF9343
:1005B000FC01DB011C928FEFEA01888384A595A5DD
:1005C000EC01888192A9892339F4EA01888181505C
:1005D00088838111F3CFBFC086A597A5EC01288140
:1005E00033A9232B28838FEFEA01888384A595A55F
:1005F000EC01888192A9892339F0EA018881815030
:1006000088838111F3CFA7C0C6A5D7A5988183A9F8
:10061000809589238883D2E4DA95F1F700C0C4A5D8
:10062000D5A5888192A9892319F08C9181608C933A
:10063000C6A5D7A5888193A9892B888382E48A954A
:10064000F1F700C0C4A5D5A5888192A9892319F026
:100650008C9182608C93C6A5D7A5988183A980953B
:1006600089238883C2E4CA95F1F700C0C4A5D5A543
:10067000888192A9892319F08C9184608C93C6A5F6
:10068000D7A5888193A9892B8883D2E4DA95F1F7DD
:1006900000C0C4A5D5A5888192A9892319F08C91A1
:1006A00088608C93C6A5D7A5988183A98095892356
:1006B000888382E48A95F1F700C0C4A5D5A5888116
:1006C00092A9892319F08C9180618C93C6A5D7A536
:1006D000888193A9892B8883C2E4CA95F1F700C069
:1006E000C4A5D5A5888192A9892319F08C9180622F
:1006F0008C93C6A5D7A5988183A9809589238883E3
:10070000D2E4DA95F1F700C0C4A5D5A5888192A9F5
:10071000892319F08C9180648C93C6A5D7A5888114
:1007200093A9892B888382E48A95F1F700C0C4A538
:10073000D5A5888192A9892319F08C9180688C9322
:10074000A6A5B7A59C9183A9809589238C93C2E423
:10075000CA95F1F700C0DF91CF910895FF920F93F2
:100760001F93CF93DF9300D0CDB7DEB78C01FF246A
:10077000FA94AE014F5F5F4FBE016E5F7F4FC801BD
:1007800015DF8981882309F461C0FA9409F45EC0F9
:100790008A818B3771F7F801148A9AE0F92EAE013D
:1007A0004F5F5F4FBE016E5F7F4FC801FFDE8981E3
:1007B000F801882309F44BC0FA9409F448C08489ED
:1007C0009A81E80FF11D908321E0280FF801248B16
:1007D0009C3729F7848B12A68AE0F82EAE014F5F72
:1007E0005F4FBE016E5F7F4FC801E0DE8FEF8F0D60
:1007F0009981992359F1882349F19A819C3549F5CA
:10080000AE014F5F5F4FBE016E5F7F4FC801CEDE0E
:1008100089818823D9F0F2E0FF16C1F0F80182A5A2
:10082000E80FF11D9A81968B8F5FF80182A7AE01C8
:100830004F5F5F4FBE016E5F7F4FC801B7DE8DEF28
:100840008F0D9981992311F0811103C0F801148A49
:1008500010C0F80192A52A81E90FF11D268B31E025
:10086000390FF80132A72D3711F0F82EB7CFF80164
:1008700092A70F900F90DF91CF911F910F91FF9052
:100880000895FF920F931F93CF93DF9300D0CDB7BE
:10089000DEB78C01AE014F5F5F4F6BE774DD89817E
:1008A000882309F44BC0F12CF8018589F81658F417
:1008B000F801EF0DF11DAE014F5F5F4F6285C8017A
:1008C00062DDF394F1CF89818823C1F1158AAE01ED
:1008D0004F5F5F4F6CE7C80156DD8981882371F156
:1008E000F12CF80183A5F816F0F4F801EF0DF11DD5
:1008F00020A12D3711F02C3541F4AE014F5F5F4F31
:100900006CE5C8012A833FDD2A8189818823B1F003
:10091000AE014F5F5F4F622FC80135DD89818823AB
:1009200069F0F394DECFAE014F5F5F4F6DE7C80112
:100930002ADD8981882311F0F80113A60F900F900A
:10094000DF91CF911F910F91FF900895CF93DF9387
:10095000FC012489DC0180E090E0821738F43D91AD
:10096000EB01C80FD91F3A870196F7CFDB015596E7
:100970002C93148A22A580E090E0821760F4DF01B6
:10098000A80FB91F56963C91DB01A80FB91F90968E
:100990003C930196F2CFDB019B962C9312A6DF913C
:1009A000CF910895FC01448920E030E0241748F4F9
:1009B0005191DB01A20FB31F1A965C932F5F3F4F3B
:1009C000F5CFFB01458BFC0142A520E030E0241768
:1009D00058F4FC01E20FF31F5689FB01E20FF31FED
:1009E00050A32F5F3F4FF3CFFB0143A70895CF9351
:1009F000DF93FC0180E0A82FB0E091E0980FEF01B9
:100A0000CA0FDB1F28812E3511F0892FF4CF809378
:100A1000DB001196848990E0A817B90719F48AE5DC
:100A200084AB07C0AE0FBF1F8C9184AB85A98883B0
:100A30002C93DF91CF9108951092DA00FC01758913
:100A4000472F50E060E0671770F4262F30E0D9019F
:100A5000A053BF4FFA01E21BF30BE80FF91F2185EA
:100A60002C936F5FF0CF40E0471760F4242F30E005
:100A7000FC01E20FF31FD901A053BF4F2C91228735
:100A80004F5FF2CF4093DA0008950F931F93CF93F7
:100A9000DF93EC01ECA5FDA580819AA9892351F093
:100AA0008C89811107C0CE0159DE8C89882311F011
:100AB000CE019DDF8C898823B1F18CA98A3559F448
:100AC0008D89811130C0BE01CE0140DFCE01B4DF7F
:100AD000CE0144DC28C02EA99FA9863481F4022FC0
:100AE000192FF80195A98DA9981739F0B801CE01F1
:100AF00059DFF80106A917A9F4CF1C8A14C0E22F08
:100B0000F92F95A9891307C02589211104C0BF01B8
:100B1000CE011CDF08C02DA9291301C01C8A06A81C
:100B2000F7A9E02DEECF8D89882331F0CE01DF913A
:100B3000CF911F910F91A5CEDF91CF911F910F9172
:100B400008950F931F93CF93DF938C01FC01808155
:100B500006DCC82FF801818102DCD0E0DC2FCC2735
:100B6000D295D07F90E0982F8827C80FD91FF80121
:100B70008281F5DB90E044E0880F991F4A95E1F708
:100B8000C80FD91FF8018381EADB9E01280F311DB0
:100B9000C901DF91CF911F910F91089520E826BDE3
:100BA00016BC80E38093CD001092AC001092AD0093
:100BB00080E690E09093CF008093CE00DA9AD29AAC
:100BC00089E390E090938D0080938C0088E390E01F
:100BD00090938F0080938E0087E390E09093910034
:100BE000809390002093920084E08093930081E3AF
:100BF00080939500109274001092750088E990E03F
:100C00009093970080939600C298BA9A2FEF88E04D
:100C10009DE3215080409040E1F700C00000C99959
:100C20000FC088E990E0E1DA8091AC00882341F0C0
:100C300060E670E088E990E089DE80E690E021DE01
:100C4000E0918C00F0918D00808190919200892339
:100C500031F380E690E082DD809174008823F9F220
:100C600068E970E080E690E071DE88E990E036DBCC
:060C7000D6CFF894FFCF7F
:00000001FF
