:1000000020C02FC0B7C02DC02CC02BC02AC029C013
:1000100028C027C026C025C024C023C022C021C0BC
:1000200020C0A3C08CC092C094C090C09EC094C099
:1000300086C085C091C099C089C08BC087C07FC071
:1000400094C011241FBECFE5D1E0DEBFCDBF20E0BC
:10005000A0E6B0E001C01D92AB3EB207E1F7F1D4DB
:100060005CC5CECFCF93DF93EC0188A18E3629F10A
:1000700048F48436F1F0863629F1803209F041C027
:100080001D8A3FC0823731F140F48037D1F52D8988
:10009000E1EEF0E080E090E026C0853731F0873770
:1000A00081F5CE018196A0D418C088B599B5019785
:1000B00014C088B599B5019610C019BC18BC18A217
:1000C00019A20FC08FEF93E099BD88BD83E088A38C
:1000D0008FEF06C088B599B502C099BD88BD98A3B9
:1000E00089A382E011C0821740F4DE01A80FB91F76
:1000F0001A963C9131930196F6CF209360008DA91A
:1001000001C08FE388A381E08BA7DF91CF91089591
:1001100080E18BBF8CE082BB789408952091D4005D
:10012000237089B382FD246083FD2860822F90E0D4
:100130008031910588F4FC01EF5EFF4F099481E066
:1001400090E090936300809362000DC082E090E0A5
:1001500005C083E090E002C084E090E090936300EB
:100160008093620081E0809361002695269520931C
:10017000D40008951F920F920FB60F9211242F935F
:100180003F934F935F936F937F938F939F93AF931F
:10019000BF93EF93FF93C2DFFF91EF91BF91AF91B8
:1001A0009F918F917F916F915F914F913F912F918F
:1001B0000F900FBE0F901F901895CF93DF93FC0107
:1001C000809161008823D9F0209160002223B9F04A
:1001D00010926100A1EEB0E080E090E0821738F468
:1001E0003D91EF01C80FD91F3A870196F7CF258BB4
:1001F000809162009091630080A381E083A7DF91EA
:10020000CF910895982F80ED890F8A3070F08FE993
:10021000890F863010F489EA05C08FEB890F86308C
:1002200018F489EC890F089580E00895CF93DF9347
:10023000FC01DA01C6A5D7A5888193A9892B8883FB
:100240008FEF8C93C4A5D5A5888192A9892331F419
:100250008C9181508C938111F5CFF8C0C6A5D7A59C
:10026000988183A98095892388838FEF8C93C4A577
:10027000D5A5888192A9892331F08C9181508C93E6
:100280008111F5CFE3C0C6A5D7A593A960FD05C030
:100290002881892F8095822302C08881892B8883B9
:1002A0008FEF8C93C4A5D5A5888192A9892331F4B9
:1002B0008C9181508C938111F5CFC8C0C6A5D7A56C
:1002C00093A961FD05C02881892F8095822302C0F2
:1002D0008881892B88838FEF8C93C4A5D5A58881CD
:1002E00092A9892331F08C9181508C938111F5CFA3
:1002F000ADC0C6A5D7A593A962FD05C02881892FE9
:100300008095822302C08881892B88838FEF8C930C
:10031000C4A5D5A5888192A9892331F48C918150F7
:100320008C938111F5CF92C0C6A5D7A593A963FD83
:1003300005C02881892F8095822302C08881892B5E
:1003400088838FEF8C93C4A5D5A5888192A9892332
:1003500031F08C9181508C938111F5CF77C0C6A577
:10036000D7A593A964FD05C02881892F8095822394
:1003700002C08881892B88838FEF8C93C4A5D5A573
:10038000888192A9892331F48C9181508C938111B9
:10039000F5CF5CC0C6A5D7A593A965FD05C028818A
:1003A000892F8095822302C08881892B88838FEFD3
:1003B0008C93C4A5D5A5888192A9892331F08C910D
:1003C00081508C938111F5CF41C0C6A5D7A593A9C3
:1003D00066FD05C02881892F8095822302C088810F
:1003E000892B88838FEF8C93C4A5D5A5888192A98A
:1003F000892331F48C9181508C938111F5CF26C0E3
:10040000C6A5D7A593A967FD05C02881892F80952A
:10041000822302C08881892B88838FEF8C93C4A5A7
:10042000D5A5888192A9892331F08C9181508C9334
:100430008111F5CF0BC0A6A5B7A59C9183A9809586
:1004400089238C9382E48A95F1F700C0DF91CF91E4
:100450000895CF93DF93FC01DB011C928FEFEA013B
:10046000888384A595A5EC01888192A9892339F414
:10047000EA018881815088838111F3CFBFC086A5AE
:1004800097A5EC01288133A9232B28838FEFEA015C
:10049000888384A595A5EC01888192A9892339F0E8
:1004A000EA018881815088838111F3CFA7C0C6A556
:1004B000D7A5988183A9809589238883D2E4DA958A
:1004C000F1F700C0C4A5D5A5888192A9892319F0A8
:1004D0008C9181608C93C6A5D7A5888193A9892B1F
:1004E000888382E48A95F1F700C0C4A5D5A58881E8
:1004F00092A9892319F08C9182608C93C6A5D7A507
:10050000988183A9809589238883C2E4CA95F1F7ED
:1005100000C0C4A5D5A5888192A9892319F08C9122
:1005200084608C93C6A5D7A5888193A9892B8883DD
:10053000D2E4DA95F1F700C0C4A5D5A5888192A9C7
:10054000892319F08C9188608C93C6A5D7A59881D2
:1005500083A980958923888382E48A95F1F700C076
:10056000C4A5D5A5888192A9892319F08C918061B1
:100570008C93C6A5D7A5888193A9892B8883C2E4CB
:10058000CA95F1F700C0C4A5D5A5888192A9892391
:1005900019F08C9180628C93C6A5D7A5988183A908
:1005A000809589238883D2E4DA95F1F700C0C4A549
:1005B000D5A5888192A9892319F08C9180648C93A8
:1005C000C6A5D7A5888193A9892B888382E48A95BB
:1005D000F1F700C0C4A5D5A5888192A9892319F097
:1005E0008C9180688C93A6A5B7A59C9183A98095D2
:1005F00089238C93C2E4CA95F1F700C0DF91CF91B3
:100600000895FF920F931F93CF93DF9300D0CDB740
:10061000DEB78C01FF24FA94AE014F5F5F4FBE013D
:100620006E5F7F4FC80115DF8981882309F461C09F
:10063000FA9409F45EC08A818B3771F7F801148A45
:100640009AE0F92EAE014F5F5F4FBE016E5F7F4FA4
:10065000C801FFDE8981F801882309F44BC0FA94B0
:1006600009F448C084899A81E80FF11D908321E044
:10067000280FF801248B9C3729F7848B12A68AE077
:10068000F82EAE014F5F5F4FBE016E5F7F4FC80116
:10069000E0DE8FEF8F0D9981992359F1882349F17D
:1006A0009A819C3549F5AE014F5F5F4FBE016E5F89
:1006B0007F4FC801CEDE89818823D9F0F2E0FF1692
:1006C000C1F0F80182A5E80FF11D9A81968B8F5F2A
:1006D000F80182A7AE014F5F5F4FBE016E5F7F4F93
:1006E000C801B7DE8DEF8F0D9981992311F081112B
:1006F00003C0F801148A10C0F80192A52A81E90FFD
:10070000F11D268B31E0390FF80132A72D3711F09A
:10071000F82EB7CFF80192A70F900F90DF91CF91ED
:100720001F910F91FF900895FF920F931F93CF9306
:10073000DF9300D0CDB7DEB78C01AE014F5F5F4FC6
:100740006BE774DD8981882309F44BC0F12CF80133
:100750008589F81658F4F801EF0DF11DAE014F5FD1
:100760005F4F6285C80162DDF394F1CF89818823F0
:10077000C1F1158AAE014F5F5F4F6CE7C80156DDCE
:100780008981882371F1F12CF80183A5F816F0F422
:10079000F801EF0DF11D20A12D3711F02C3541F49A
:1007A000AE014F5F5F4F6CE5C8012A833FDD2A81B0
:1007B00089818823B1F0AE014F5F5F4F622FC8017E
:1007C00035DD8981882369F0F394DECFAE014F5F78
:1007D0005F4F6DE7C8012ADD8981882311F0F80198
:1007E00013A60F900F90DF91CF911F910F91FF9063
:1007F0000895CF93DF93FC012489DC0180E090E031
:10080000821738F43D91EB01C80FD91F3A87019642
:10081000F7CFDB0155962C93148A22A580E090E057
:10082000821760F4DF01A80FB91F56963C91DB01D7
:10083000A80FB91F90963C930196F2CFDB019B96CF
:100840002C9312A6DF91CF910895FC01448920E0FA
:1008500030E0241748F45191DB01A20FB31F1A9620
:100860005C932F5F3F4FF5CFFB01458BFC0142A509
:1008700020E030E0241758F4FC01E20FF31F568902
:10088000FB01E20FF31F50A32F5F3F4FF3CFFB019C
:1008900043A70895CF93DF93FC0180E0A82FB0E039
:1008A00091E0980FEF01CA0FDB1F28812E3511F060
:1008B000892FF4CF8093E0001196848990E0A817E7
:1008C000B90719F48AE584AB07C0AE0FBF1F8C913E
:1008D00084AB85A988832C93DF91CF9108951092E2
:1008E000DF00FC017589472F50E060E0671770F466
:1008F000262F30E0D901AB52BF4FFA01E21BF30BB8
:10090000E80FF91F21852C936F5FF0CF40E0471768
:1009100060F4242F30E0FC01E20FF31FD901AB5249
:10092000BF4F2C9122874F5FF2CF4093DF00089595
:100930000F931F93CF93DF93EC01ECA5FDA580816E
:100940009AA9892351F08C89811107C0CE0159DE03
:100950008C89882311F0CE019DDF8C898823B1F129
:100960008CA98A3559F48D89811130C0BE01CE0120
:1009700040DFCE01B4DFCE0175DB28C02EA99FA9D0
:10098000863481F4022F192FF80195A98DA99817A3
:1009900039F0B801CE0159DFF80106A917A9F4CF43
:1009A0001C8A14C0E22FF92F95A9891307C0258945
:1009B000211104C0BF01CE011CDF08C02DA92913DD
:1009C00001C01C8A06A8F7A9E02DEECF8D898823E7
:1009D00031F0CE01DF91CF911F910F91A5CEDF9124
:1009E000CF911F910F9108950F931F93CF93DF9392
:1009F0008C01FC01808106DCC82FF801818102DCBA
:100A0000D0E0DC2FCC27D295D07F90E0982F88279C
:100A1000C80FD91FF8018281F5DB90E044E0880F10
:100A2000991F4A95E1F7C80FD91FF8018381EADBC6
:100A30009E01280F311DC901DF91CF911F910F91A8
:100A4000089540E846BD16BC83E38FBD89E08EBDA6
:100A50008FEF93E099BD88BDDD98D59A89E390E04A
:100A60009093C9008093C80028E330E03093CB0016
:100A70002093CA0027E330E03093CD002093CC00D0
:100A80004093CE0024E02093CF001092B00010924B
:100A9000B10020E32093D10024E630E03093D3006E
:100AA0002093D200C298BA9A9093910080939000BC
:100AB0008BE390E090939300809392008AE390E020
:100AC000909395008093940081E08093960082E05B
:100AD00080939700109278001092790081E38093C0
:100AE00099008CE990E090939B0080939A00D998AC
:100AF000D19A2FEF88E09DE3215080409040E1F7AC
:100B000000C0000005DB8CE990E012DF84E690E095
:0E0B10000FDF8CE990E051DBF6CFF894FFCFB9
:00000001FF
